{
  "_format": "hh-sol-artifact-1",
  "contractName": "NFTCollection",
  "sourceName": "contracts/NFTCollection.sol",
  "abi": [
    {
      "inputs": [],
      "stateMutability": "nonpayable",
      "type": "constructor"
    },
    {
      "anonymous": false,
      "inputs": [
        {
          "indexed": true,
          "internalType": "address",
          "name": "owner",
          "type": "address"
        },
        {
          "indexed": true,
          "internalType": "address",
          "name": "approved",
          "type": "address"
        },
        {
          "indexed": true,
          "internalType": "uint256",
          "name": "tokenId",
          "type": "uint256"
        }
      ],
      "name": "Approval",
      "type": "event"
    },
    {
      "anonymous": false,
      "inputs": [
        {
          "indexed": true,
          "internalType": "address",
          "name": "owner",
          "type": "address"
        },
        {
          "indexed": true,
          "internalType": "address",
          "name": "operator",
          "type": "address"
        },
        {
          "indexed": false,
          "internalType": "bool",
          "name": "approved",
          "type": "bool"
        }
      ],
      "name": "ApprovalForAll",
      "type": "event"
    },
    {
      "anonymous": false,
      "inputs": [
        {
          "indexed": true,
          "internalType": "address",
          "name": "previousOwner",
          "type": "address"
        },
        {
          "indexed": true,
          "internalType": "address",
          "name": "newOwner",
          "type": "address"
        }
      ],
      "name": "OwnershipTransferred",
      "type": "event"
    },
    {
      "anonymous": false,
      "inputs": [
        {
          "indexed": true,
          "internalType": "address",
          "name": "from",
          "type": "address"
        },
        {
          "indexed": true,
          "internalType": "address",
          "name": "to",
          "type": "address"
        },
        {
          "indexed": true,
          "internalType": "uint256",
          "name": "tokenId",
          "type": "uint256"
        }
      ],
      "name": "Transfer",
      "type": "event"
    },
    {
      "inputs": [],
      "name": "MAX_SUPPLY",
      "outputs": [
        {
          "internalType": "uint256",
          "name": "",
          "type": "uint256"
        }
      ],
      "stateMutability": "view",
      "type": "function"
    },
    {
      "inputs": [],
      "name": "MINT_PRICE",
      "outputs": [
        {
          "internalType": "uint256",
          "name": "",
          "type": "uint256"
        }
      ],
      "stateMutability": "view",
      "type": "function"
    },
    {
      "inputs": [
        {
          "internalType": "address",
          "name": "to",
          "type": "address"
        },
        {
          "internalType": "uint256",
          "name": "tokenId",
          "type": "uint256"
        }
      ],
      "name": "approve",
      "outputs": [],
      "stateMutability": "nonpayable",
      "type": "function"
    },
    {
      "inputs": [
        {
          "internalType": "address",
          "name": "owner",
          "type": "address"
        }
      ],
      "name": "balanceOf",
      "outputs": [
        {
          "internalType": "uint256",
          "name": "",
          "type": "uint256"
        }
      ],
      "stateMutability": "view",
      "type": "function"
    },
    {
      "inputs": [
        {
          "internalType": "uint256",
          "name": "tokenId",
          "type": "uint256"
        }
      ],
      "name": "getApproved",
      "outputs": [
        {
          "internalType": "address",
          "name": "",
          "type": "address"
        }
      ],
      "stateMutability": "view",
      "type": "function"
    },
    {
      "inputs": [],
      "name": "hasSaleStarted",
      "outputs": [
        {
          "internalType": "bool",
          "name": "",
          "type": "bool"
        }
      ],
      "stateMutability": "view",
      "type": "function"
    },
    {
      "inputs": [
        {
          "internalType": "address",
          "name": "owner",
          "type": "address"
        },
        {
          "internalType": "address",
          "name": "operator",
          "type": "address"
        }
      ],
      "name": "isApprovedForAll",
      "outputs": [
        {
          "internalType": "bool",
          "name": "",
          "type": "bool"
        }
      ],
      "stateMutability": "view",
      "type": "function"
    },
    {
      "inputs": [
        {
          "internalType": "address",
          "name": "_owner",
          "type": "address"
        }
      ],
      "name": "listNFTsOfOwner",
      "outputs": [
        {
          "internalType": "uint256[]",
          "name": "",
          "type": "uint256[]"
        }
      ],
      "stateMutability": "view",
      "type": "function"
    },
    {
      "inputs": [
        {
          "internalType": "uint256",
          "name": "numNFTs",
          "type": "uint256"
        }
      ],
      "name": "mintNFTs",
      "outputs": [],
      "stateMutability": "payable",
      "type": "function"
    },
    {
      "inputs": [
        {
          "internalType": "uint256",
          "name": "numNFTs",
          "type": "uint256"
        }
      ],
      "name": "mintNFTsOwner",
      "outputs": [],
      "stateMutability": "nonpayable",
      "type": "function"
    },
    {
      "inputs": [],
      "name": "name",
      "outputs": [
        {
          "internalType": "string",
          "name": "",
          "type": "string"
        }
      ],
      "stateMutability": "view",
      "type": "function"
    },
    {
      "inputs": [],
      "name": "owner",
      "outputs": [
        {
          "internalType": "address",
          "name": "",
          "type": "address"
        }
      ],
      "stateMutability": "view",
      "type": "function"
    },
    {
      "inputs": [
        {
          "internalType": "uint256",
          "name": "tokenId",
          "type": "uint256"
        }
      ],
      "name": "ownerOf",
      "outputs": [
        {
          "internalType": "address",
          "name": "",
          "type": "address"
        }
      ],
      "stateMutability": "view",
      "type": "function"
    },
    {
      "inputs": [],
      "name": "renounceOwnership",
      "outputs": [],
      "stateMutability": "nonpayable",
      "type": "function"
    },
    {
      "inputs": [
        {
          "internalType": "address",
          "name": "from",
          "type": "address"
        },
        {
          "internalType": "address",
          "name": "to",
          "type": "address"
        },
        {
          "internalType": "uint256",
          "name": "tokenId",
          "type": "uint256"
        }
      ],
      "name": "safeTransferFrom",
      "outputs": [],
      "stateMutability": "nonpayable",
      "type": "function"
    },
    {
      "inputs": [
        {
          "internalType": "address",
          "name": "from",
          "type": "address"
        },
        {
          "internalType": "address",
          "name": "to",
          "type": "address"
        },
        {
          "internalType": "uint256",
          "name": "tokenId",
          "type": "uint256"
        },
        {
          "internalType": "bytes",
          "name": "_data",
          "type": "bytes"
        }
      ],
      "name": "safeTransferFrom",
      "outputs": [],
      "stateMutability": "nonpayable",
      "type": "function"
    },
    {
      "inputs": [
        {
          "internalType": "address",
          "name": "operator",
          "type": "address"
        },
        {
          "internalType": "bool",
          "name": "approved",
          "type": "bool"
        }
      ],
      "name": "setApprovalForAll",
      "outputs": [],
      "stateMutability": "nonpayable",
      "type": "function"
    },
    {
      "inputs": [
        {
          "internalType": "string",
          "name": "newURI",
          "type": "string"
        }
      ],
      "name": "setBaseURI",
      "outputs": [],
      "stateMutability": "nonpayable",
      "type": "function"
    },
    {
      "inputs": [],
      "name": "startSale",
      "outputs": [],
      "stateMutability": "nonpayable",
      "type": "function"
    },
    {
      "inputs": [
        {
          "internalType": "bytes4",
          "name": "interfaceId",
          "type": "bytes4"
        }
      ],
      "name": "supportsInterface",
      "outputs": [
        {
          "internalType": "bool",
          "name": "",
          "type": "bool"
        }
      ],
      "stateMutability": "view",
      "type": "function"
    },
    {
      "inputs": [],
      "name": "symbol",
      "outputs": [
        {
          "internalType": "string",
          "name": "",
          "type": "string"
        }
      ],
      "stateMutability": "view",
      "type": "function"
    },
    {
      "inputs": [
        {
          "internalType": "uint256",
          "name": "index",
          "type": "uint256"
        }
      ],
      "name": "tokenByIndex",
      "outputs": [
        {
          "internalType": "uint256",
          "name": "",
          "type": "uint256"
        }
      ],
      "stateMutability": "view",
      "type": "function"
    },
    {
      "inputs": [
        {
          "internalType": "address",
          "name": "owner",
          "type": "address"
        },
        {
          "internalType": "uint256",
          "name": "index",
          "type": "uint256"
        }
      ],
      "name": "tokenOfOwnerByIndex",
      "outputs": [
        {
          "internalType": "uint256",
          "name": "",
          "type": "uint256"
        }
      ],
      "stateMutability": "view",
      "type": "function"
    },
    {
      "inputs": [
        {
          "internalType": "uint256",
          "name": "tokenId",
          "type": "uint256"
        }
      ],
      "name": "tokenURI",
      "outputs": [
        {
          "internalType": "string",
          "name": "",
          "type": "string"
        }
      ],
      "stateMutability": "view",
      "type": "function"
    },
    {
      "inputs": [],
      "name": "totalSupply",
      "outputs": [
        {
          "internalType": "uint256",
          "name": "",
          "type": "uint256"
        }
      ],
      "stateMutability": "view",
      "type": "function"
    },
    {
      "inputs": [
        {
          "internalType": "address",
          "name": "from",
          "type": "address"
        },
        {
          "internalType": "address",
          "name": "to",
          "type": "address"
        },
        {
          "internalType": "uint256",
          "name": "tokenId",
          "type": "uint256"
        }
      ],
      "name": "transferFrom",
      "outputs": [],
      "stateMutability": "nonpayable",
      "type": "function"
    },
    {
      "inputs": [
        {
          "internalType": "address",
          "name": "newOwner",
          "type": "address"
        }
      ],
      "name": "transferOwnership",
      "outputs": [],
      "stateMutability": "nonpayable",
      "type": "function"
    },
    {
      "inputs": [],
      "name": "withdrawFunds",
      "outputs": [],
      "stateMutability": "nonpayable",
      "type": "function"
    }
  ],
  "bytecode": "0x60a06040819052600060808190526200001b91600c9162000123565b50600d80546001600160b01b0319163361ffff60a01b19161790553480156200004357600080fd5b50604080518082018252600d81526c27232a21b7b63632b1ba34b7b760991b60208083019182528351808501909452600384526213919560ea1b908401528151919291620000949160009162000123565b508051620000aa90600190602084019062000123565b505050620000c7620000c1620000cd60201b60201c565b620000d1565b62000206565b3390565b600b80546001600160a01b038381166001600160a01b0319831681179093556040519116919082907f8be0079c531659141344cd1fd0a4f28419497f9722a3daafe3b4186f6b6457e090600090a35050565b8280546200013190620001c9565b90600052602060002090601f016020900481019282620001555760008555620001a0565b82601f106200017057805160ff1916838001178555620001a0565b82800160010185558215620001a0579182015b82811115620001a057825182559160200191906001019062000183565b50620001ae929150620001b2565b5090565b5b80821115620001ae5760008155600101620001b3565b600181811c90821680620001de57607f821691505b602082108114156200020057634e487b7160e01b600052602260045260246000fd5b50919050565b61269880620002166000396000f3fe6080604052600436106101b75760003560e01c806355f804b3116100ec578063b66a0e5d1161008a578063c87b56dd11610064578063c87b56dd146104af578063dd441506146104cf578063e985e9c5146104ef578063f2fde38b1461053857600080fd5b8063b66a0e5d1461045f578063b88d4fde14610474578063c002d23d1461049457600080fd5b8063715018a6116100c6578063715018a6146103f75780638da5cb5b1461040c57806395d89b411461042a578063a22cb4651461043f57600080fd5b806355f804b3146103975780636352211e146103b757806370a08231146103d757600080fd5b806324600fc31161015957806334f6cb7b1161013357806334f6cb7b146103175780633b4b13811461034457806342842e0e146103575780634f6ccce71461037757600080fd5b806324600fc3146102cd5780632f745c59146102e257806332cb6b0c1461030257600080fd5b8063095ea7b311610195578063095ea7b31461024b57806318160ddd1461026d5780631c8b232d1461028c57806323b872dd146102ad57600080fd5b806301ffc9a7146101bc57806306fdde03146101f1578063081812fc14610213575b600080fd5b3480156101c857600080fd5b506101dc6101d73660046122bb565b610558565b60405190151581526020015b60405180910390f35b3480156101fd57600080fd5b50610206610569565b6040516101e8919061242d565b34801561021f57600080fd5b5061023361022e366004612339565b6105fb565b6040516001600160a01b0390911681526020016101e8565b34801561025757600080fd5b5061026b610266366004612292565b610695565b005b34801561027957600080fd5b506009545b6040519081526020016101e8565b34801561029857600080fd5b50600d546101dc90600160a01b900460ff1681565b3480156102b957600080fd5b5061026b6102c83660046121a4565b6107ab565b3480156102d957600080fd5b5061026b6107dc565b3480156102ee57600080fd5b5061027e6102fd366004612292565b61081a565b34801561030e57600080fd5b5061027e606481565b34801561032357600080fd5b50610337610332366004612158565b6108b0565b6040516101e891906123e9565b61026b610352366004612339565b61098b565b34801561036357600080fd5b5061026b6103723660046121a4565b610b63565b34801561038357600080fd5b5061027e610392366004612339565b610b7e565b3480156103a357600080fd5b5061026b6103b23660046122f3565b610c1f565b3480156103c357600080fd5b506102336103d2366004612339565b610ce2565b3480156103e357600080fd5b5061027e6103f2366004612158565b610d59565b34801561040357600080fd5b5061026b610de0565b34801561041857600080fd5b50600b546001600160a01b0316610233565b34801561043657600080fd5b50610206610e16565b34801561044b57600080fd5b5061026b61045a366004612258565b610e25565b34801561046b57600080fd5b5061026b610e30565b34801561048057600080fd5b5061026b61048f3660046121df565b610f15565b3480156104a057600080fd5b5061027e66038d7ea4c6800081565b3480156104bb57600080fd5b506102066104ca366004612339565b610f47565b3480156104db57600080fd5b5061026b6104ea366004612339565b610f52565b3480156104fb57600080fd5b506101dc61050a366004612172565b6001600160a01b03918216600090815260056020908152604080832093909416825291909152205460ff1690565b34801561054457600080fd5b5061026b610553366004612158565b611094565b60006105638261112f565b92915050565b606060008054610578906125a6565b80601f01602080910402602001604051908101604052809291908181526020018280546105a4906125a6565b80156105f15780601f106105c6576101008083540402835291602001916105f1565b820191906000526020600020905b8154815290600101906020018083116105d457829003601f168201915b5050505050905090565b6000818152600260205260408120546001600160a01b03166106795760405162461bcd60e51b815260206004820152602c60248201527f4552433732313a20617070726f76656420717565727920666f72206e6f6e657860448201526b34b9ba32b73a103a37b5b2b760a11b60648201526084015b60405180910390fd5b506000908152600460205260409020546001600160a01b031690565b60006106a082610ce2565b9050806001600160a01b0316836001600160a01b0316141561070e5760405162461bcd60e51b815260206004820152602160248201527f4552433732313a20617070726f76616c20746f2063757272656e74206f776e656044820152603960f91b6064820152608401610670565b336001600160a01b038216148061072a575061072a813361050a565b61079c5760405162461bcd60e51b815260206004820152603860248201527f4552433732313a20617070726f76652063616c6c6572206973206e6f74206f7760448201527f6e6572206e6f7220617070726f76656420666f7220616c6c00000000000000006064820152608401610670565b6107a68383611154565b505050565b6107b533826111c2565b6107d15760405162461bcd60e51b8152600401610670906124c7565b6107a68383836112b9565b600d5460405147916001600160a01b03169082156108fc029083906000818181858888f19350505050158015610816573d6000803e3d6000fd5b5050565b600061082583610d59565b82106108875760405162461bcd60e51b815260206004820152602b60248201527f455243373231456e756d657261626c653a206f776e657220696e646578206f7560448201526a74206f6620626f756e647360a81b6064820152608401610670565b506001600160a01b03919091166000908152600760209081526040808320938352929052205490565b606060006108bd83610d59565b9050806108de5760408051600080825260208201909252905b509392505050565b60008167ffffffffffffffff81111561090757634e487b7160e01b600052604160045260246000fd5b604051908082528060200260200182016040528015610930578160200160208202803683370190505b50905060005b828110156108d657610948858261081a565b82828151811061096857634e487b7160e01b600052603260045260246000fd5b60209081029190910101528061097d816125db565b915050610936565b50919050565b600d54600160a01b900460ff1615156001146109e45760405162461bcd60e51b815260206004820152601860248201527714d85b19481a185cc81b9bdd081cdd185c9d1959081e595d60421b6044820152606401610670565b6000811180156109f55750600a8111155b610a515760405162461bcd60e51b815260206004820152602760248201527f596f752063616e206f6e6c7920627579203120746f203130206e66747320617460448201526620612074696d6560c81b6064820152608401610670565b606481610a5d60095490565b610a679190612518565b1115610ab55760405162461bcd60e51b815260206004820152601d60248201527f5468657265206172656e277420656e6f756768206e667473206c6566740000006044820152606401610670565b6000610ac88266038d7ea4c68000612544565b905080341015610b2b5760405162461bcd60e51b815260206004820152602860248201527f45746865722076616c75652073656e742069732062656c6f7720746865206d696044820152676e7420707269636560c01b6064820152608401610670565b6000805b83811015610b5d57610b3f611460565b9150610b4b33836115ef565b80610b55816125db565b915050610b2f565b50505050565b6107a683838360405180602001604052806000815250610f15565b6000610b8960095490565b8210610bec5760405162461bcd60e51b815260206004820152602c60248201527f455243373231456e756d657261626c653a20676c6f62616c20696e646578206f60448201526b7574206f6620626f756e647360a01b6064820152608401610670565b60098281548110610c0d57634e487b7160e01b600052603260045260246000fd5b90600052602060002001549050919050565b600b546001600160a01b03163314610c495760405162461bcd60e51b815260040161067090612492565b600d54600160a01b900460ff1615610cbc5760405162461bcd60e51b815260206004820152603060248201527f43616e2774206368616e6765206d65746164617461206166746572207468652060448201526f1cd85b19481a185cc81cdd185c9d195960821b6064820152608401610670565b600d805460ff60a81b1916600160a81b179055805161081690600c90602084019061202d565b6000818152600260205260408120546001600160a01b0316806105635760405162461bcd60e51b815260206004820152602960248201527f4552433732313a206f776e657220717565727920666f72206e6f6e657869737460448201526832b73a103a37b5b2b760b91b6064820152608401610670565b60006001600160a01b038216610dc45760405162461bcd60e51b815260206004820152602a60248201527f4552433732313a2062616c616e636520717565727920666f7220746865207a65604482015269726f206164647265737360b01b6064820152608401610670565b506001600160a01b031660009081526003602052604090205490565b600b546001600160a01b03163314610e0a5760405162461bcd60e51b815260040161067090612492565b610e146000611609565b565b606060018054610578906125a6565b61081633838361165b565b600b546001600160a01b03163314610e5a5760405162461bcd60e51b815260040161067090612492565b600d54600160a01b900460ff1615610eb45760405162461bcd60e51b815260206004820152601860248201527f53616c652068617320616c7265616479207374617274656400000000000000006044820152606401610670565b600d54600160a81b900460ff161515600114610f005760405162461bcd60e51b815260206004820152600b60248201526a155492481b9bdd081cd95d60aa1b6044820152606401610670565b600d805460ff60a01b1916600160a01b179055565b610f1f33836111c2565b610f3b5760405162461bcd60e51b8152600401610670906124c7565b610b5d8484848461172a565b60606105638261175d565b600d54600160a01b900460ff161515600114610fab5760405162461bcd60e51b815260206004820152601860248201527714d85b19481a185cc81b9bdd081cdd185c9d1959081e595d60421b6044820152606401610670565b60008111610ff15760405162461bcd60e51b8152602060048201526013602482015272135a5b9d08185d081b19585cdd080c481b999d606a1b6044820152606401610670565b606481610ffd60095490565b6110079190612518565b11156110555760405162461bcd60e51b815260206004820152601d60248201527f5468657265206172656e277420656e6f756768206e667473206c6566740000006044820152606401610670565b6000805b828110156107a657611069611460565b600d54909250611082906001600160a01b0316836115ef565b8061108c816125db565b915050611059565b600b546001600160a01b031633146110be5760405162461bcd60e51b815260040161067090612492565b6001600160a01b0381166111235760405162461bcd60e51b815260206004820152602660248201527f4f776e61626c653a206e6577206f776e657220697320746865207a65726f206160448201526564647265737360d01b6064820152608401610670565b61112c81611609565b50565b60006001600160e01b0319821663780e9d6360e01b14806105635750610563826118cf565b600081815260046020526040902080546001600160a01b0319166001600160a01b038416908117909155819061118982610ce2565b6001600160a01b03167f8c5be1e5ebec7d5bd14f71427d1e84f3dd0314c0f7b2291e5b200ac8c7c3b92560405160405180910390a45050565b6000818152600260205260408120546001600160a01b031661123b5760405162461bcd60e51b815260206004820152602c60248201527f4552433732313a206f70657261746f7220717565727920666f72206e6f6e657860448201526b34b9ba32b73a103a37b5b2b760a11b6064820152608401610670565b600061124683610ce2565b9050806001600160a01b0316846001600160a01b031614806112815750836001600160a01b0316611276846105fb565b6001600160a01b0316145b806112b157506001600160a01b0380821660009081526005602090815260408083209388168352929052205460ff165b949350505050565b826001600160a01b03166112cc82610ce2565b6001600160a01b0316146113305760405162461bcd60e51b815260206004820152602560248201527f4552433732313a207472616e736665722066726f6d20696e636f72726563742060448201526437bbb732b960d91b6064820152608401610670565b6001600160a01b0382166113925760405162461bcd60e51b8152602060048201526024808201527f4552433732313a207472616e7366657220746f20746865207a65726f206164646044820152637265737360e01b6064820152608401610670565b61139d83838361191f565b6113a8600082611154565b6001600160a01b03831660009081526003602052604081208054600192906113d1908490612563565b90915550506001600160a01b03821660009081526003602052604081208054600192906113ff908490612518565b909155505060008181526002602052604080822080546001600160a01b0319166001600160a01b0386811691821790925591518493918716917fddf252ad1be2c89b69c2b068fc378daa952ba7f163c4a11628f55a4df523b3ef91a4505050565b60008061146c60095490565b611477906064612563565b905060008161148560095490565b6040805160208101929092526bffffffffffffffffffffffff193360601b16908201524460548201524260748201526094016040516020818303038152906040528051906020012060001c6114da91906125f6565b90506000600e82606481106114ff57634e487b7160e01b600052603260045260246000fd5b01541561153057600e826064811061152757634e487b7160e01b600052603260045260246000fd5b01549050611533565b50805b600e611540600185612563565b6064811061155e57634e487b7160e01b600052603260045260246000fd5b01546115975761156f600184612563565b600e836064811061159057634e487b7160e01b600052603260045260246000fd5b01556115e8565b600e6115a4600185612563565b606481106115c257634e487b7160e01b600052603260045260246000fd5b0154600e83606481106115e557634e487b7160e01b600052603260045260246000fd5b01555b9392505050565b61081682826040518060200160405280600081525061192a565b600b80546001600160a01b038381166001600160a01b0319831681179093556040519116919082907f8be0079c531659141344cd1fd0a4f28419497f9722a3daafe3b4186f6b6457e090600090a35050565b816001600160a01b0316836001600160a01b031614156116bd5760405162461bcd60e51b815260206004820152601960248201527f4552433732313a20617070726f766520746f2063616c6c6572000000000000006044820152606401610670565b6001600160a01b03838116600081815260056020908152604080832094871680845294825291829020805460ff191686151590811790915591519182527f17307eab39ab6107e8899845ad3d59bd9653f200f220920489ca2b5937696c31910160405180910390a3505050565b6117358484846112b9565b6117418484848461195d565b610b5d5760405162461bcd60e51b815260040161067090612440565b6000818152600260205260409020546060906001600160a01b03166117de5760405162461bcd60e51b815260206004820152603160248201527f45524337323155524953746f726167653a2055524920717565727920666f72206044820152703737b732bc34b9ba32b73a103a37b5b2b760791b6064820152608401610670565b600082815260066020526040812080546117f7906125a6565b80601f0160208091040260200160405190810160405280929190818152602001828054611823906125a6565b80156118705780601f1061184557610100808354040283529160200191611870565b820191906000526020600020905b81548152906001019060200180831161185357829003601f168201915b505050505090506000611881611a6a565b9050805160001415611894575092915050565b8151156118c65780826040516020016118ae92919061237d565b60405160208183030381529060405292505050919050565b6112b184611a79565b60006001600160e01b031982166380ac58cd60e01b148061190057506001600160e01b03198216635b5e139f60e01b145b8061056357506301ffc9a760e01b6001600160e01b0319831614610563565b6107a6838383611b53565b6119348383611c0b565b611941600084848461195d565b6107a65760405162461bcd60e51b815260040161067090612440565b60006001600160a01b0384163b15611a5f57604051630a85bd0160e11b81526001600160a01b0385169063150b7a02906119a19033908990889088906004016123ac565b602060405180830381600087803b1580156119bb57600080fd5b505af19250505080156119eb575060408051601f3d908101601f191682019092526119e8918101906122d7565b60015b611a45573d808015611a19576040519150601f19603f3d011682016040523d82523d6000602084013e611a1e565b606091505b508051611a3d5760405162461bcd60e51b815260040161067090612440565b805181602001fd5b6001600160e01b031916630a85bd0160e11b1490506112b1565b506001949350505050565b6060600c8054610578906125a6565b6000818152600260205260409020546060906001600160a01b0316611af85760405162461bcd60e51b815260206004820152602f60248201527f4552433732314d657461646174613a2055524920717565727920666f72206e6f60448201526e3732bc34b9ba32b73a103a37b5b2b760891b6064820152608401610670565b6000611b02611a6a565b90506000815111611b2257604051806020016040528060008152506115e8565b80611b2c84611d59565b604051602001611b3d92919061237d565b6040516020818303038152906040529392505050565b6001600160a01b038316611bae57611ba981600980546000838152600a60205260408120829055600182018355919091527f6e1540171b6c0c960b71a7020d9f60077f6af931a8bbf590da0223dacf75c7af0155565b611bd1565b816001600160a01b0316836001600160a01b031614611bd157611bd18382611e73565b6001600160a01b038216611be8576107a681611f10565b826001600160a01b0316826001600160a01b0316146107a6576107a68282611fe9565b6001600160a01b038216611c615760405162461bcd60e51b815260206004820181905260248201527f4552433732313a206d696e7420746f20746865207a65726f20616464726573736044820152606401610670565b6000818152600260205260409020546001600160a01b031615611cc65760405162461bcd60e51b815260206004820152601c60248201527f4552433732313a20746f6b656e20616c7265616479206d696e746564000000006044820152606401610670565b611cd26000838361191f565b6001600160a01b0382166000908152600360205260408120805460019290611cfb908490612518565b909155505060008181526002602052604080822080546001600160a01b0319166001600160a01b03861690811790915590518392907fddf252ad1be2c89b69c2b068fc378daa952ba7f163c4a11628f55a4df523b3ef908290a45050565b606081611d7d5750506040805180820190915260018152600360fc1b602082015290565b8160005b8115611da75780611d91816125db565b9150611da09050600a83612530565b9150611d81565b60008167ffffffffffffffff811115611dd057634e487b7160e01b600052604160045260246000fd5b6040519080825280601f01601f191660200182016040528015611dfa576020820181803683370190505b5090505b84156112b157611e0f600183612563565b9150611e1c600a866125f6565b611e27906030612518565b60f81b818381518110611e4a57634e487b7160e01b600052603260045260246000fd5b60200101906001600160f81b031916908160001a905350611e6c600a86612530565b9450611dfe565b60006001611e8084610d59565b611e8a9190612563565b600083815260086020526040902054909150808214611edd576001600160a01b03841660009081526007602090815260408083208584528252808320548484528184208190558352600890915290208190555b5060009182526008602090815260408084208490556001600160a01b039094168352600781528383209183525290812055565b600954600090611f2290600190612563565b6000838152600a602052604081205460098054939450909284908110611f5857634e487b7160e01b600052603260045260246000fd5b906000526020600020015490508060098381548110611f8757634e487b7160e01b600052603260045260246000fd5b6000918252602080832090910192909255828152600a90915260408082208490558582528120556009805480611fcd57634e487b7160e01b600052603160045260246000fd5b6001900381819060005260206000200160009055905550505050565b6000611ff483610d59565b6001600160a01b039093166000908152600760209081526040808320868452825280832085905593825260089052919091209190915550565b828054612039906125a6565b90600052602060002090601f01602090048101928261205b57600085556120a1565b82601f1061207457805160ff19168380011785556120a1565b828001600101855582156120a1579182015b828111156120a1578251825591602001919060010190612086565b506120ad9291506120b1565b5090565b5b808211156120ad57600081556001016120b2565b600067ffffffffffffffff808411156120e1576120e1612636565b604051601f8501601f19908116603f0116810190828211818310171561210957612109612636565b8160405280935085815286868601111561212257600080fd5b858560208301376000602087830101525050509392505050565b80356001600160a01b038116811461215357600080fd5b919050565b600060208284031215612169578081fd5b6115e88261213c565b60008060408385031215612184578081fd5b61218d8361213c565b915061219b6020840161213c565b90509250929050565b6000806000606084860312156121b8578081fd5b6121c18461213c565b92506121cf6020850161213c565b9150604084013590509250925092565b600080600080608085870312156121f4578081fd5b6121fd8561213c565b935061220b6020860161213c565b925060408501359150606085013567ffffffffffffffff81111561222d578182fd5b8501601f8101871361223d578182fd5b61224c878235602084016120c6565b91505092959194509250565b6000806040838503121561226a578182fd5b6122738361213c565b915060208301358015158114612287578182fd5b809150509250929050565b600080604083850312156122a4578182fd5b6122ad8361213c565b946020939093013593505050565b6000602082840312156122cc578081fd5b81356115e88161264c565b6000602082840312156122e8578081fd5b81516115e88161264c565b600060208284031215612304578081fd5b813567ffffffffffffffff81111561231a578182fd5b8201601f8101841361232a578182fd5b6112b1848235602084016120c6565b60006020828403121561234a578081fd5b5035919050565b6000815180845261236981602086016020860161257a565b601f01601f19169290920160200192915050565b6000835161238f81846020880161257a565b8351908301906123a381836020880161257a565b01949350505050565b6001600160a01b03858116825284166020820152604081018390526080606082018190526000906123df90830184612351565b9695505050505050565b6020808252825182820181905260009190848201906040850190845b8181101561242157835183529284019291840191600101612405565b50909695505050505050565b6020815260006115e86020830184612351565b60208082526032908201527f4552433732313a207472616e7366657220746f206e6f6e20455243373231526560408201527131b2b4bb32b91034b6b83632b6b2b73a32b960711b606082015260800190565b6020808252818101527f4f776e61626c653a2063616c6c6572206973206e6f7420746865206f776e6572604082015260600190565b60208082526031908201527f4552433732313a207472616e736665722063616c6c6572206973206e6f74206f6040820152701ddb995c881b9bdc88185c1c1c9bdd9959607a1b606082015260800190565b6000821982111561252b5761252b61260a565b500190565b60008261253f5761253f612620565b500490565b600081600019048311821515161561255e5761255e61260a565b500290565b6000828210156125755761257561260a565b500390565b60005b8381101561259557818101518382015260200161257d565b83811115610b5d5750506000910152565b600181811c908216806125ba57607f821691505b6020821081141561098557634e487b7160e01b600052602260045260246000fd5b60006000198214156125ef576125ef61260a565b5060010190565b60008261260557612605612620565b500690565b634e487b7160e01b600052601160045260246000fd5b634e487b7160e01b600052601260045260246000fd5b634e487b7160e01b600052604160045260246000fd5b6001600160e01b03198116811461112c57600080fdfea2646970667358221220202eb0fb50c25167da45759c7ab67ea54e0e7baaa6f18bf18aefde1883bedc5c64736f6c63430008040033",
  "linkReferences": {},
  "deployedLinkReferences": {}
}