{
  "_format": "hh-sol-artifact-1",
  "contractName": "NFTCollection",
  "sourceName": "contracts/NFTCollection.sol",
  "abi": [
    {
      "inputs": [],
      "stateMutability": "nonpayable",
      "type": "constructor"
    },
    {
      "anonymous": false,
      "inputs": [
        {
          "indexed": true,
          "internalType": "address",
          "name": "owner",
          "type": "address"
        },
        {
          "indexed": true,
          "internalType": "address",
          "name": "approved",
          "type": "address"
        },
        {
          "indexed": true,
          "internalType": "uint256",
          "name": "tokenId",
          "type": "uint256"
        }
      ],
      "name": "Approval",
      "type": "event"
    },
    {
      "anonymous": false,
      "inputs": [
        {
          "indexed": true,
          "internalType": "address",
          "name": "owner",
          "type": "address"
        },
        {
          "indexed": true,
          "internalType": "address",
          "name": "operator",
          "type": "address"
        },
        {
          "indexed": false,
          "internalType": "bool",
          "name": "approved",
          "type": "bool"
        }
      ],
      "name": "ApprovalForAll",
      "type": "event"
    },
    {
      "anonymous": false,
      "inputs": [
        {
          "indexed": true,
          "internalType": "address",
          "name": "previousOwner",
          "type": "address"
        },
        {
          "indexed": true,
          "internalType": "address",
          "name": "newOwner",
          "type": "address"
        }
      ],
      "name": "OwnershipTransferred",
      "type": "event"
    },
    {
      "anonymous": false,
      "inputs": [
        {
          "indexed": true,
          "internalType": "address",
          "name": "from",
          "type": "address"
        },
        {
          "indexed": true,
          "internalType": "address",
          "name": "to",
          "type": "address"
        },
        {
          "indexed": true,
          "internalType": "uint256",
          "name": "tokenId",
          "type": "uint256"
        }
      ],
      "name": "Transfer",
      "type": "event"
    },
    {
      "inputs": [],
      "name": "MAX_SUPPLY",
      "outputs": [
        {
          "internalType": "uint256",
          "name": "",
          "type": "uint256"
        }
      ],
      "stateMutability": "view",
      "type": "function"
    },
    {
      "inputs": [],
      "name": "MINT_PRICE",
      "outputs": [
        {
          "internalType": "uint256",
          "name": "",
          "type": "uint256"
        }
      ],
      "stateMutability": "view",
      "type": "function"
    },
    {
      "inputs": [
        {
          "internalType": "address",
          "name": "to",
          "type": "address"
        },
        {
          "internalType": "uint256",
          "name": "tokenId",
          "type": "uint256"
        }
      ],
      "name": "approve",
      "outputs": [],
      "stateMutability": "nonpayable",
      "type": "function"
    },
    {
      "inputs": [
        {
          "internalType": "address",
          "name": "owner",
          "type": "address"
        }
      ],
      "name": "balanceOf",
      "outputs": [
        {
          "internalType": "uint256",
          "name": "",
          "type": "uint256"
        }
      ],
      "stateMutability": "view",
      "type": "function"
    },
    {
      "inputs": [
        {
          "internalType": "uint256",
          "name": "tokenId",
          "type": "uint256"
        }
      ],
      "name": "getApproved",
      "outputs": [
        {
          "internalType": "address",
          "name": "",
          "type": "address"
        }
      ],
      "stateMutability": "view",
      "type": "function"
    },
    {
      "inputs": [
        {
          "internalType": "address",
          "name": "owner",
          "type": "address"
        },
        {
          "internalType": "address",
          "name": "operator",
          "type": "address"
        }
      ],
      "name": "isApprovedForAll",
      "outputs": [
        {
          "internalType": "bool",
          "name": "",
          "type": "bool"
        }
      ],
      "stateMutability": "view",
      "type": "function"
    },
    {
      "inputs": [
        {
          "internalType": "address",
          "name": "_owner",
          "type": "address"
        }
      ],
      "name": "listNFTsOfOwner",
      "outputs": [
        {
          "internalType": "uint256[]",
          "name": "",
          "type": "uint256[]"
        }
      ],
      "stateMutability": "view",
      "type": "function"
    },
    {
      "inputs": [
        {
          "internalType": "uint256",
          "name": "numNFTs",
          "type": "uint256"
        }
      ],
      "name": "mintNFTs",
      "outputs": [],
      "stateMutability": "payable",
      "type": "function"
    },
    {
      "inputs": [
        {
          "internalType": "uint256",
          "name": "numNFTs",
          "type": "uint256"
        }
      ],
      "name": "mintNFTsOwner",
      "outputs": [],
      "stateMutability": "nonpayable",
      "type": "function"
    },
    {
      "inputs": [],
      "name": "name",
      "outputs": [
        {
          "internalType": "string",
          "name": "",
          "type": "string"
        }
      ],
      "stateMutability": "view",
      "type": "function"
    },
    {
      "inputs": [],
      "name": "owner",
      "outputs": [
        {
          "internalType": "address",
          "name": "",
          "type": "address"
        }
      ],
      "stateMutability": "view",
      "type": "function"
    },
    {
      "inputs": [],
      "name": "ownerAddress",
      "outputs": [
        {
          "internalType": "address payable",
          "name": "",
          "type": "address"
        }
      ],
      "stateMutability": "view",
      "type": "function"
    },
    {
      "inputs": [
        {
          "internalType": "uint256",
          "name": "tokenId",
          "type": "uint256"
        }
      ],
      "name": "ownerOf",
      "outputs": [
        {
          "internalType": "address",
          "name": "",
          "type": "address"
        }
      ],
      "stateMutability": "view",
      "type": "function"
    },
    {
      "inputs": [],
      "name": "renounceOwnership",
      "outputs": [],
      "stateMutability": "nonpayable",
      "type": "function"
    },
    {
      "inputs": [
        {
          "internalType": "address",
          "name": "from",
          "type": "address"
        },
        {
          "internalType": "address",
          "name": "to",
          "type": "address"
        },
        {
          "internalType": "uint256",
          "name": "tokenId",
          "type": "uint256"
        }
      ],
      "name": "safeTransferFrom",
      "outputs": [],
      "stateMutability": "nonpayable",
      "type": "function"
    },
    {
      "inputs": [
        {
          "internalType": "address",
          "name": "from",
          "type": "address"
        },
        {
          "internalType": "address",
          "name": "to",
          "type": "address"
        },
        {
          "internalType": "uint256",
          "name": "tokenId",
          "type": "uint256"
        },
        {
          "internalType": "bytes",
          "name": "_data",
          "type": "bytes"
        }
      ],
      "name": "safeTransferFrom",
      "outputs": [],
      "stateMutability": "nonpayable",
      "type": "function"
    },
    {
      "inputs": [
        {
          "internalType": "address",
          "name": "operator",
          "type": "address"
        },
        {
          "internalType": "bool",
          "name": "approved",
          "type": "bool"
        }
      ],
      "name": "setApprovalForAll",
      "outputs": [],
      "stateMutability": "nonpayable",
      "type": "function"
    },
    {
      "inputs": [
        {
          "internalType": "string",
          "name": "newURI",
          "type": "string"
        }
      ],
      "name": "setBaseURI",
      "outputs": [],
      "stateMutability": "nonpayable",
      "type": "function"
    },
    {
      "inputs": [
        {
          "internalType": "bytes4",
          "name": "interfaceId",
          "type": "bytes4"
        }
      ],
      "name": "supportsInterface",
      "outputs": [
        {
          "internalType": "bool",
          "name": "",
          "type": "bool"
        }
      ],
      "stateMutability": "view",
      "type": "function"
    },
    {
      "inputs": [],
      "name": "symbol",
      "outputs": [
        {
          "internalType": "string",
          "name": "",
          "type": "string"
        }
      ],
      "stateMutability": "view",
      "type": "function"
    },
    {
      "inputs": [
        {
          "internalType": "uint256",
          "name": "index",
          "type": "uint256"
        }
      ],
      "name": "tokenByIndex",
      "outputs": [
        {
          "internalType": "uint256",
          "name": "",
          "type": "uint256"
        }
      ],
      "stateMutability": "view",
      "type": "function"
    },
    {
      "inputs": [
        {
          "internalType": "address",
          "name": "owner",
          "type": "address"
        },
        {
          "internalType": "uint256",
          "name": "index",
          "type": "uint256"
        }
      ],
      "name": "tokenOfOwnerByIndex",
      "outputs": [
        {
          "internalType": "uint256",
          "name": "",
          "type": "uint256"
        }
      ],
      "stateMutability": "view",
      "type": "function"
    },
    {
      "inputs": [
        {
          "internalType": "uint256",
          "name": "tokenId",
          "type": "uint256"
        }
      ],
      "name": "tokenURI",
      "outputs": [
        {
          "internalType": "string",
          "name": "",
          "type": "string"
        }
      ],
      "stateMutability": "view",
      "type": "function"
    },
    {
      "inputs": [],
      "name": "totalSupply",
      "outputs": [
        {
          "internalType": "uint256",
          "name": "",
          "type": "uint256"
        }
      ],
      "stateMutability": "view",
      "type": "function"
    },
    {
      "inputs": [
        {
          "internalType": "address",
          "name": "from",
          "type": "address"
        },
        {
          "internalType": "address",
          "name": "to",
          "type": "address"
        },
        {
          "internalType": "uint256",
          "name": "tokenId",
          "type": "uint256"
        }
      ],
      "name": "transferFrom",
      "outputs": [],
      "stateMutability": "nonpayable",
      "type": "function"
    },
    {
      "inputs": [
        {
          "internalType": "address",
          "name": "newOwner",
          "type": "address"
        }
      ],
      "name": "transferOwnership",
      "outputs": [],
      "stateMutability": "nonpayable",
      "type": "function"
    },
    {
      "inputs": [],
      "name": "withdrawFunds",
      "outputs": [],
      "stateMutability": "nonpayable",
      "type": "function"
    }
  ],
  "bytecode": "0x60a06040819052600060808190526200001b91600c916200012e565b50600d80546001600160a01b03191673a95ea4cef177f3acc2d4545e6d2d8919887aa8741790553480156200004f57600080fd5b50604080518082018252600c81526b26bca1b7b63632b1ba34b7b760a11b60208083019182528351808501909452600384526241424360e81b9084015281519192916200009f916000916200012e565b508051620000b59060019060208401906200012e565b505050620000d2620000cc620000d860201b60201c565b620000dc565b62000211565b3390565b600b80546001600160a01b038381166001600160a01b0319831681179093556040519116919082907f8be0079c531659141344cd1fd0a4f28419497f9722a3daafe3b4186f6b6457e090600090a35050565b8280546200013c90620001d4565b90600052602060002090601f016020900481019282620001605760008555620001ab565b82601f106200017b57805160ff1916838001178555620001ab565b82800160010185558215620001ab579182015b82811115620001ab5782518255916020019190600101906200018e565b50620001b9929150620001bd565b5090565b5b80821115620001b95760008155600101620001be565b600181811c90821680620001e957607f821691505b602082108114156200020b57634e487b7160e01b600052602260045260246000fd5b50919050565b61245480620002216000396000f3fe60806040526004361061019c5760003560e01c806355f804b3116100ec578063a22cb4651161008a578063c87b56dd11610064578063c87b56dd1461047f578063dd4415061461049f578063e985e9c5146104bf578063f2fde38b1461050857600080fd5b8063a22cb46514610424578063b88d4fde14610444578063c002d23d1461046457600080fd5b8063715018a6116100c6578063715018a6146103bc5780638da5cb5b146103d15780638f84aa09146103ef57806395d89b411461040f57600080fd5b806355f804b31461035c5780636352211e1461037c57806370a082311461039c57600080fd5b806324600fc31161015957806334f6cb7b1161013357806334f6cb7b146102dc5780633b4b13811461030957806342842e0e1461031c5780634f6ccce71461033c57600080fd5b806324600fc3146102915780632f745c59146102a657806332cb6b0c146102c657600080fd5b806301ffc9a7146101a157806306fdde03146101d6578063081812fc146101f8578063095ea7b31461023057806318160ddd1461025257806323b872dd14610271575b600080fd5b3480156101ad57600080fd5b506101c16101bc366004612077565b610528565b60405190151581526020015b60405180910390f35b3480156101e257600080fd5b506101eb610539565b6040516101cd91906121e9565b34801561020457600080fd5b506102186102133660046120f5565b6105cb565b6040516001600160a01b0390911681526020016101cd565b34801561023c57600080fd5b5061025061024b36600461204e565b610665565b005b34801561025e57600080fd5b506009545b6040519081526020016101cd565b34801561027d57600080fd5b5061025061028c366004611f60565b61077b565b34801561029d57600080fd5b506102506107ac565b3480156102b257600080fd5b506102636102c136600461204e565b6107ea565b3480156102d257600080fd5b5061026361271081565b3480156102e857600080fd5b506102fc6102f7366004611f14565b610880565b6040516101cd91906121a5565b6102506103173660046120f5565b61095b565b34801561032857600080fd5b50610250610337366004611f60565b610adb565b34801561034857600080fd5b506102636103573660046120f5565b610af6565b34801561036857600080fd5b506102506103773660046120af565b610b97565b34801561038857600080fd5b506102186103973660046120f5565b610bd4565b3480156103a857600080fd5b506102636103b7366004611f14565b610c4b565b3480156103c857600080fd5b50610250610cd2565b3480156103dd57600080fd5b50600b546001600160a01b0316610218565b3480156103fb57600080fd5b50600d54610218906001600160a01b031681565b34801561041b57600080fd5b506101eb610d08565b34801561043057600080fd5b5061025061043f366004612014565b610d17565b34801561045057600080fd5b5061025061045f366004611f9b565b610d22565b34801561047057600080fd5b5061026366038d7ea4c6800081565b34801561048b57600080fd5b506101eb61049a3660046120f5565b610d54565b3480156104ab57600080fd5b506102506104ba3660046120f5565b610d5f565b3480156104cb57600080fd5b506101c16104da366004611f2e565b6001600160a01b03918216600090815260056020908152604080832093909416825291909152205460ff1690565b34801561051457600080fd5b50610250610523366004611f14565b610e49565b600061053382610ee4565b92915050565b60606000805461054890612362565b80601f016020809104026020016040519081016040528092919081815260200182805461057490612362565b80156105c15780601f10610596576101008083540402835291602001916105c1565b820191906000526020600020905b8154815290600101906020018083116105a457829003601f168201915b5050505050905090565b6000818152600260205260408120546001600160a01b03166106495760405162461bcd60e51b815260206004820152602c60248201527f4552433732313a20617070726f76656420717565727920666f72206e6f6e657860448201526b34b9ba32b73a103a37b5b2b760a11b60648201526084015b60405180910390fd5b506000908152600460205260409020546001600160a01b031690565b600061067082610bd4565b9050806001600160a01b0316836001600160a01b031614156106de5760405162461bcd60e51b815260206004820152602160248201527f4552433732313a20617070726f76616c20746f2063757272656e74206f776e656044820152603960f91b6064820152608401610640565b336001600160a01b03821614806106fa57506106fa81336104da565b61076c5760405162461bcd60e51b815260206004820152603860248201527f4552433732313a20617070726f76652063616c6c6572206973206e6f74206f7760448201527f6e6572206e6f7220617070726f76656420666f7220616c6c00000000000000006064820152608401610640565b6107768383610f09565b505050565b6107853382610f77565b6107a15760405162461bcd60e51b815260040161064090612283565b61077683838361106e565b600d5460405147916001600160a01b03169082156108fc029083906000818181858888f193505050501580156107e6573d6000803e3d6000fd5b5050565b60006107f583610c4b565b82106108575760405162461bcd60e51b815260206004820152602b60248201527f455243373231456e756d657261626c653a206f776e657220696e646578206f7560448201526a74206f6620626f756e647360a81b6064820152608401610640565b506001600160a01b03919091166000908152600760209081526040808320938352929052205490565b6060600061088d83610c4b565b9050806108ae5760408051600080825260208201909252905b509392505050565b60008167ffffffffffffffff8111156108d757634e487b7160e01b600052604160045260246000fd5b604051908082528060200260200182016040528015610900578160200160208202803683370190505b50905060005b828110156108a65761091885826107ea565b82828151811061093857634e487b7160e01b600052603260045260246000fd5b60209081029190910101528061094d81612397565b915050610906565b50919050565b60008111801561096c575060328111155b6109c85760405162461bcd60e51b815260206004820152602760248201527f596f752063616e206f6e6c7920627579203120746f203530206e66747320617460448201526620612074696d6560c81b6064820152608401610640565b612710816109d560095490565b6109df91906122d4565b1115610a2d5760405162461bcd60e51b815260206004820152601d60248201527f5468657265206172656e277420656e6f756768206e667473206c6566740000006044820152606401610640565b6000610a408266038d7ea4c68000612300565b905080341015610aa35760405162461bcd60e51b815260206004820152602860248201527f45746865722076616c75652073656e742069732062656c6f7720746865206d696044820152676e7420707269636560c01b6064820152608401610640565b6000805b83811015610ad557610ab7611215565b9150610ac333836113ab565b80610acd81612397565b915050610aa7565b50505050565b61077683838360405180602001604052806000815250610d22565b6000610b0160095490565b8210610b645760405162461bcd60e51b815260206004820152602c60248201527f455243373231456e756d657261626c653a20676c6f62616c20696e646578206f60448201526b7574206f6620626f756e647360a01b6064820152608401610640565b60098281548110610b8557634e487b7160e01b600052603260045260246000fd5b90600052602060002001549050919050565b600b546001600160a01b03163314610bc15760405162461bcd60e51b81526004016106409061224e565b80516107e690600c906020840190611de9565b6000818152600260205260408120546001600160a01b0316806105335760405162461bcd60e51b815260206004820152602960248201527f4552433732313a206f776e657220717565727920666f72206e6f6e657869737460448201526832b73a103a37b5b2b760b91b6064820152608401610640565b60006001600160a01b038216610cb65760405162461bcd60e51b815260206004820152602a60248201527f4552433732313a2062616c616e636520717565727920666f7220746865207a65604482015269726f206164647265737360b01b6064820152608401610640565b506001600160a01b031660009081526003602052604090205490565b600b546001600160a01b03163314610cfc5760405162461bcd60e51b81526004016106409061224e565b610d0660006113c5565b565b60606001805461054890612362565b6107e6338383611417565b610d2c3383610f77565b610d485760405162461bcd60e51b815260040161064090612283565b610ad5848484846114e6565b606061053382611519565b60008111610da55760405162461bcd60e51b8152602060048201526013602482015272135a5b9d08185d081b19585cdd080c481b999d606a1b6044820152606401610640565b61271081610db260095490565b610dbc91906122d4565b1115610e0a5760405162461bcd60e51b815260206004820152601d60248201527f5468657265206172656e277420656e6f756768206e667473206c6566740000006044820152606401610640565b6000805b8281101561077657610e1e611215565b600d54909250610e37906001600160a01b0316836113ab565b80610e4181612397565b915050610e0e565b600b546001600160a01b03163314610e735760405162461bcd60e51b81526004016106409061224e565b6001600160a01b038116610ed85760405162461bcd60e51b815260206004820152602660248201527f4f776e61626c653a206e6577206f776e657220697320746865207a65726f206160448201526564647265737360d01b6064820152608401610640565b610ee1816113c5565b50565b60006001600160e01b0319821663780e9d6360e01b148061053357506105338261168b565b600081815260046020526040902080546001600160a01b0319166001600160a01b0384169081179091558190610f3e82610bd4565b6001600160a01b03167f8c5be1e5ebec7d5bd14f71427d1e84f3dd0314c0f7b2291e5b200ac8c7c3b92560405160405180910390a45050565b6000818152600260205260408120546001600160a01b0316610ff05760405162461bcd60e51b815260206004820152602c60248201527f4552433732313a206f70657261746f7220717565727920666f72206e6f6e657860448201526b34b9ba32b73a103a37b5b2b760a11b6064820152608401610640565b6000610ffb83610bd4565b9050806001600160a01b0316846001600160a01b031614806110365750836001600160a01b031661102b846105cb565b6001600160a01b0316145b8061106657506001600160a01b0380821660009081526005602090815260408083209388168352929052205460ff165b949350505050565b826001600160a01b031661108182610bd4565b6001600160a01b0316146110e55760405162461bcd60e51b815260206004820152602560248201527f4552433732313a207472616e736665722066726f6d20696e636f72726563742060448201526437bbb732b960d91b6064820152608401610640565b6001600160a01b0382166111475760405162461bcd60e51b8152602060048201526024808201527f4552433732313a207472616e7366657220746f20746865207a65726f206164646044820152637265737360e01b6064820152608401610640565b6111528383836116db565b61115d600082610f09565b6001600160a01b038316600090815260036020526040812080546001929061118690849061231f565b90915550506001600160a01b03821660009081526003602052604081208054600192906111b49084906122d4565b909155505060008181526002602052604080822080546001600160a01b0319166001600160a01b0386811691821790925591518493918716917fddf252ad1be2c89b69c2b068fc378daa952ba7f163c4a11628f55a4df523b3ef91a4505050565b60008061122160095490565b61122d9061271061231f565b905060008161123b60095490565b6040805160208101929092526bffffffffffffffffffffffff193360601b16908201524460548201524260748201526094016040516020818303038152906040528051906020012060001c61129091906123b2565b90506000600e8261271081106112b657634e487b7160e01b600052603260045260246000fd5b0154156112e857600e8261271081106112df57634e487b7160e01b600052603260045260246000fd5b015490506112eb565b50805b600e6112f860018561231f565b612710811061131757634e487b7160e01b600052603260045260246000fd5b01546113515761132860018461231f565b600e83612710811061134a57634e487b7160e01b600052603260045260246000fd5b01556113a4565b600e61135e60018561231f565b612710811061137d57634e487b7160e01b600052603260045260246000fd5b0154600e8361271081106113a157634e487b7160e01b600052603260045260246000fd5b01555b9392505050565b6107e68282604051806020016040528060008152506116e6565b600b80546001600160a01b038381166001600160a01b0319831681179093556040519116919082907f8be0079c531659141344cd1fd0a4f28419497f9722a3daafe3b4186f6b6457e090600090a35050565b816001600160a01b0316836001600160a01b031614156114795760405162461bcd60e51b815260206004820152601960248201527f4552433732313a20617070726f766520746f2063616c6c6572000000000000006044820152606401610640565b6001600160a01b03838116600081815260056020908152604080832094871680845294825291829020805460ff191686151590811790915591519182527f17307eab39ab6107e8899845ad3d59bd9653f200f220920489ca2b5937696c31910160405180910390a3505050565b6114f184848461106e565b6114fd84848484611719565b610ad55760405162461bcd60e51b8152600401610640906121fc565b6000818152600260205260409020546060906001600160a01b031661159a5760405162461bcd60e51b815260206004820152603160248201527f45524337323155524953746f726167653a2055524920717565727920666f72206044820152703737b732bc34b9ba32b73a103a37b5b2b760791b6064820152608401610640565b600082815260066020526040812080546115b390612362565b80601f01602080910402602001604051908101604052809291908181526020018280546115df90612362565b801561162c5780601f106116015761010080835404028352916020019161162c565b820191906000526020600020905b81548152906001019060200180831161160f57829003601f168201915b50505050509050600061163d611826565b9050805160001415611650575092915050565b81511561168257808260405160200161166a929190612139565b60405160208183030381529060405292505050919050565b61106684611835565b60006001600160e01b031982166380ac58cd60e01b14806116bc57506001600160e01b03198216635b5e139f60e01b145b8061053357506301ffc9a760e01b6001600160e01b0319831614610533565b61077683838361190f565b6116f083836119c7565b6116fd6000848484611719565b6107765760405162461bcd60e51b8152600401610640906121fc565b60006001600160a01b0384163b1561181b57604051630a85bd0160e11b81526001600160a01b0385169063150b7a029061175d903390899088908890600401612168565b602060405180830381600087803b15801561177757600080fd5b505af19250505080156117a7575060408051601f3d908101601f191682019092526117a491810190612093565b60015b611801573d8080156117d5576040519150601f19603f3d011682016040523d82523d6000602084013e6117da565b606091505b5080516117f95760405162461bcd60e51b8152600401610640906121fc565b805181602001fd5b6001600160e01b031916630a85bd0160e11b149050611066565b506001949350505050565b6060600c805461054890612362565b6000818152600260205260409020546060906001600160a01b03166118b45760405162461bcd60e51b815260206004820152602f60248201527f4552433732314d657461646174613a2055524920717565727920666f72206e6f60448201526e3732bc34b9ba32b73a103a37b5b2b760891b6064820152608401610640565b60006118be611826565b905060008151116118de57604051806020016040528060008152506113a4565b806118e884611b15565b6040516020016118f9929190612139565b6040516020818303038152906040529392505050565b6001600160a01b03831661196a5761196581600980546000838152600a60205260408120829055600182018355919091527f6e1540171b6c0c960b71a7020d9f60077f6af931a8bbf590da0223dacf75c7af0155565b61198d565b816001600160a01b0316836001600160a01b03161461198d5761198d8382611c2f565b6001600160a01b0382166119a45761077681611ccc565b826001600160a01b0316826001600160a01b031614610776576107768282611da5565b6001600160a01b038216611a1d5760405162461bcd60e51b815260206004820181905260248201527f4552433732313a206d696e7420746f20746865207a65726f20616464726573736044820152606401610640565b6000818152600260205260409020546001600160a01b031615611a825760405162461bcd60e51b815260206004820152601c60248201527f4552433732313a20746f6b656e20616c7265616479206d696e746564000000006044820152606401610640565b611a8e600083836116db565b6001600160a01b0382166000908152600360205260408120805460019290611ab79084906122d4565b909155505060008181526002602052604080822080546001600160a01b0319166001600160a01b03861690811790915590518392907fddf252ad1be2c89b69c2b068fc378daa952ba7f163c4a11628f55a4df523b3ef908290a45050565b606081611b395750506040805180820190915260018152600360fc1b602082015290565b8160005b8115611b635780611b4d81612397565b9150611b5c9050600a836122ec565b9150611b3d565b60008167ffffffffffffffff811115611b8c57634e487b7160e01b600052604160045260246000fd5b6040519080825280601f01601f191660200182016040528015611bb6576020820181803683370190505b5090505b841561106657611bcb60018361231f565b9150611bd8600a866123b2565b611be39060306122d4565b60f81b818381518110611c0657634e487b7160e01b600052603260045260246000fd5b60200101906001600160f81b031916908160001a905350611c28600a866122ec565b9450611bba565b60006001611c3c84610c4b565b611c46919061231f565b600083815260086020526040902054909150808214611c99576001600160a01b03841660009081526007602090815260408083208584528252808320548484528184208190558352600890915290208190555b5060009182526008602090815260408084208490556001600160a01b039094168352600781528383209183525290812055565b600954600090611cde9060019061231f565b6000838152600a602052604081205460098054939450909284908110611d1457634e487b7160e01b600052603260045260246000fd5b906000526020600020015490508060098381548110611d4357634e487b7160e01b600052603260045260246000fd5b6000918252602080832090910192909255828152600a90915260408082208490558582528120556009805480611d8957634e487b7160e01b600052603160045260246000fd5b6001900381819060005260206000200160009055905550505050565b6000611db083610c4b565b6001600160a01b039093166000908152600760209081526040808320868452825280832085905593825260089052919091209190915550565b828054611df590612362565b90600052602060002090601f016020900481019282611e175760008555611e5d565b82601f10611e3057805160ff1916838001178555611e5d565b82800160010185558215611e5d579182015b82811115611e5d578251825591602001919060010190611e42565b50611e69929150611e6d565b5090565b5b80821115611e695760008155600101611e6e565b600067ffffffffffffffff80841115611e9d57611e9d6123f2565b604051601f8501601f19908116603f01168101908282118183101715611ec557611ec56123f2565b81604052809350858152868686011115611ede57600080fd5b858560208301376000602087830101525050509392505050565b80356001600160a01b0381168114611f0f57600080fd5b919050565b600060208284031215611f25578081fd5b6113a482611ef8565b60008060408385031215611f40578081fd5b611f4983611ef8565b9150611f5760208401611ef8565b90509250929050565b600080600060608486031215611f74578081fd5b611f7d84611ef8565b9250611f8b60208501611ef8565b9150604084013590509250925092565b60008060008060808587031215611fb0578081fd5b611fb985611ef8565b9350611fc760208601611ef8565b925060408501359150606085013567ffffffffffffffff811115611fe9578182fd5b8501601f81018713611ff9578182fd5b61200887823560208401611e82565b91505092959194509250565b60008060408385031215612026578182fd5b61202f83611ef8565b915060208301358015158114612043578182fd5b809150509250929050565b60008060408385031215612060578182fd5b61206983611ef8565b946020939093013593505050565b600060208284031215612088578081fd5b81356113a481612408565b6000602082840312156120a4578081fd5b81516113a481612408565b6000602082840312156120c0578081fd5b813567ffffffffffffffff8111156120d6578182fd5b8201601f810184136120e6578182fd5b61106684823560208401611e82565b600060208284031215612106578081fd5b5035919050565b60008151808452612125816020860160208601612336565b601f01601f19169290920160200192915050565b6000835161214b818460208801612336565b83519083019061215f818360208801612336565b01949350505050565b6001600160a01b038581168252841660208201526040810183905260806060820181905260009061219b9083018461210d565b9695505050505050565b6020808252825182820181905260009190848201906040850190845b818110156121dd578351835292840192918401916001016121c1565b50909695505050505050565b6020815260006113a4602083018461210d565b60208082526032908201527f4552433732313a207472616e7366657220746f206e6f6e20455243373231526560408201527131b2b4bb32b91034b6b83632b6b2b73a32b960711b606082015260800190565b6020808252818101527f4f776e61626c653a2063616c6c6572206973206e6f7420746865206f776e6572604082015260600190565b60208082526031908201527f4552433732313a207472616e736665722063616c6c6572206973206e6f74206f6040820152701ddb995c881b9bdc88185c1c1c9bdd9959607a1b606082015260800190565b600082198211156122e7576122e76123c6565b500190565b6000826122fb576122fb6123dc565b500490565b600081600019048311821515161561231a5761231a6123c6565b500290565b600082821015612331576123316123c6565b500390565b60005b83811015612351578181015183820152602001612339565b83811115610ad55750506000910152565b600181811c9082168061237657607f821691505b6020821081141561095557634e487b7160e01b600052602260045260246000fd5b60006000198214156123ab576123ab6123c6565b5060010190565b6000826123c1576123c16123dc565b500690565b634e487b7160e01b600052601160045260246000fd5b634e487b7160e01b600052601260045260246000fd5b634e487b7160e01b600052604160045260246000fd5b6001600160e01b031981168114610ee157600080fdfea2646970667358221220b7b4058d1469a05c985ee12e65f22b42bc0e80d7650bec434dbd45371ac9066364736f6c63430008040033",
  "linkReferences": {},
  "deployedLinkReferences": {}
}