{
  "_format": "hh-sol-artifact-1",
  "contractName": "Sharksocialclub",
  "sourceName": "contracts/Sharksocialclub.sol",
  "abi": [
    {
      "inputs": [],
      "stateMutability": "nonpayable",
      "type": "constructor"
    },
    {
      "anonymous": false,
      "inputs": [
        {
          "indexed": true,
          "internalType": "address",
          "name": "owner",
          "type": "address"
        },
        {
          "indexed": true,
          "internalType": "address",
          "name": "approved",
          "type": "address"
        },
        {
          "indexed": true,
          "internalType": "uint256",
          "name": "tokenId",
          "type": "uint256"
        }
      ],
      "name": "Approval",
      "type": "event"
    },
    {
      "anonymous": false,
      "inputs": [
        {
          "indexed": true,
          "internalType": "address",
          "name": "owner",
          "type": "address"
        },
        {
          "indexed": true,
          "internalType": "address",
          "name": "operator",
          "type": "address"
        },
        {
          "indexed": false,
          "internalType": "bool",
          "name": "approved",
          "type": "bool"
        }
      ],
      "name": "ApprovalForAll",
      "type": "event"
    },
    {
      "anonymous": false,
      "inputs": [
        {
          "indexed": true,
          "internalType": "address",
          "name": "previousOwner",
          "type": "address"
        },
        {
          "indexed": true,
          "internalType": "address",
          "name": "newOwner",
          "type": "address"
        }
      ],
      "name": "OwnershipTransferred",
      "type": "event"
    },
    {
      "anonymous": false,
      "inputs": [
        {
          "indexed": true,
          "internalType": "address",
          "name": "from",
          "type": "address"
        },
        {
          "indexed": true,
          "internalType": "address",
          "name": "to",
          "type": "address"
        },
        {
          "indexed": true,
          "internalType": "uint256",
          "name": "tokenId",
          "type": "uint256"
        }
      ],
      "name": "Transfer",
      "type": "event"
    },
    {
      "inputs": [],
      "name": "MAX_SUPPLY",
      "outputs": [
        {
          "internalType": "uint256",
          "name": "",
          "type": "uint256"
        }
      ],
      "stateMutability": "view",
      "type": "function"
    },
    {
      "inputs": [],
      "name": "MINT_PRICE",
      "outputs": [
        {
          "internalType": "uint256",
          "name": "",
          "type": "uint256"
        }
      ],
      "stateMutability": "view",
      "type": "function"
    },
    {
      "inputs": [
        {
          "internalType": "address",
          "name": "to",
          "type": "address"
        },
        {
          "internalType": "uint256",
          "name": "tokenId",
          "type": "uint256"
        }
      ],
      "name": "approve",
      "outputs": [],
      "stateMutability": "nonpayable",
      "type": "function"
    },
    {
      "inputs": [
        {
          "internalType": "address",
          "name": "owner",
          "type": "address"
        }
      ],
      "name": "balanceOf",
      "outputs": [
        {
          "internalType": "uint256",
          "name": "",
          "type": "uint256"
        }
      ],
      "stateMutability": "view",
      "type": "function"
    },
    {
      "inputs": [
        {
          "internalType": "uint256",
          "name": "tokenId",
          "type": "uint256"
        }
      ],
      "name": "getApproved",
      "outputs": [
        {
          "internalType": "address",
          "name": "",
          "type": "address"
        }
      ],
      "stateMutability": "view",
      "type": "function"
    },
    {
      "inputs": [
        {
          "internalType": "address",
          "name": "owner",
          "type": "address"
        },
        {
          "internalType": "address",
          "name": "operator",
          "type": "address"
        }
      ],
      "name": "isApprovedForAll",
      "outputs": [
        {
          "internalType": "bool",
          "name": "",
          "type": "bool"
        }
      ],
      "stateMutability": "view",
      "type": "function"
    },
    {
      "inputs": [
        {
          "internalType": "address",
          "name": "_owner",
          "type": "address"
        }
      ],
      "name": "listSharksOfOwner",
      "outputs": [
        {
          "internalType": "uint256[]",
          "name": "",
          "type": "uint256[]"
        }
      ],
      "stateMutability": "view",
      "type": "function"
    },
    {
      "inputs": [
        {
          "internalType": "uint256",
          "name": "numSharks",
          "type": "uint256"
        }
      ],
      "name": "mintSharks",
      "outputs": [],
      "stateMutability": "payable",
      "type": "function"
    },
    {
      "inputs": [
        {
          "internalType": "uint256",
          "name": "numSharks",
          "type": "uint256"
        }
      ],
      "name": "mintSharksOwner",
      "outputs": [],
      "stateMutability": "payable",
      "type": "function"
    },
    {
      "inputs": [],
      "name": "name",
      "outputs": [
        {
          "internalType": "string",
          "name": "",
          "type": "string"
        }
      ],
      "stateMutability": "view",
      "type": "function"
    },
    {
      "inputs": [],
      "name": "owner",
      "outputs": [
        {
          "internalType": "address",
          "name": "",
          "type": "address"
        }
      ],
      "stateMutability": "view",
      "type": "function"
    },
    {
      "inputs": [],
      "name": "ownerAddress",
      "outputs": [
        {
          "internalType": "address payable",
          "name": "",
          "type": "address"
        }
      ],
      "stateMutability": "view",
      "type": "function"
    },
    {
      "inputs": [
        {
          "internalType": "uint256",
          "name": "tokenId",
          "type": "uint256"
        }
      ],
      "name": "ownerOf",
      "outputs": [
        {
          "internalType": "address",
          "name": "",
          "type": "address"
        }
      ],
      "stateMutability": "view",
      "type": "function"
    },
    {
      "inputs": [],
      "name": "renounceOwnership",
      "outputs": [],
      "stateMutability": "nonpayable",
      "type": "function"
    },
    {
      "inputs": [
        {
          "internalType": "address",
          "name": "from",
          "type": "address"
        },
        {
          "internalType": "address",
          "name": "to",
          "type": "address"
        },
        {
          "internalType": "uint256",
          "name": "tokenId",
          "type": "uint256"
        }
      ],
      "name": "safeTransferFrom",
      "outputs": [],
      "stateMutability": "nonpayable",
      "type": "function"
    },
    {
      "inputs": [
        {
          "internalType": "address",
          "name": "from",
          "type": "address"
        },
        {
          "internalType": "address",
          "name": "to",
          "type": "address"
        },
        {
          "internalType": "uint256",
          "name": "tokenId",
          "type": "uint256"
        },
        {
          "internalType": "bytes",
          "name": "_data",
          "type": "bytes"
        }
      ],
      "name": "safeTransferFrom",
      "outputs": [],
      "stateMutability": "nonpayable",
      "type": "function"
    },
    {
      "inputs": [
        {
          "internalType": "address",
          "name": "operator",
          "type": "address"
        },
        {
          "internalType": "bool",
          "name": "approved",
          "type": "bool"
        }
      ],
      "name": "setApprovalForAll",
      "outputs": [],
      "stateMutability": "nonpayable",
      "type": "function"
    },
    {
      "inputs": [
        {
          "internalType": "string",
          "name": "newURI",
          "type": "string"
        }
      ],
      "name": "setBaseURI",
      "outputs": [],
      "stateMutability": "nonpayable",
      "type": "function"
    },
    {
      "inputs": [
        {
          "internalType": "bytes4",
          "name": "interfaceId",
          "type": "bytes4"
        }
      ],
      "name": "supportsInterface",
      "outputs": [
        {
          "internalType": "bool",
          "name": "",
          "type": "bool"
        }
      ],
      "stateMutability": "view",
      "type": "function"
    },
    {
      "inputs": [],
      "name": "symbol",
      "outputs": [
        {
          "internalType": "string",
          "name": "",
          "type": "string"
        }
      ],
      "stateMutability": "view",
      "type": "function"
    },
    {
      "inputs": [
        {
          "internalType": "uint256",
          "name": "index",
          "type": "uint256"
        }
      ],
      "name": "tokenByIndex",
      "outputs": [
        {
          "internalType": "uint256",
          "name": "",
          "type": "uint256"
        }
      ],
      "stateMutability": "view",
      "type": "function"
    },
    {
      "inputs": [
        {
          "internalType": "address",
          "name": "owner",
          "type": "address"
        },
        {
          "internalType": "uint256",
          "name": "index",
          "type": "uint256"
        }
      ],
      "name": "tokenOfOwnerByIndex",
      "outputs": [
        {
          "internalType": "uint256",
          "name": "",
          "type": "uint256"
        }
      ],
      "stateMutability": "view",
      "type": "function"
    },
    {
      "inputs": [
        {
          "internalType": "uint256",
          "name": "tokenId",
          "type": "uint256"
        }
      ],
      "name": "tokenURI",
      "outputs": [
        {
          "internalType": "string",
          "name": "",
          "type": "string"
        }
      ],
      "stateMutability": "view",
      "type": "function"
    },
    {
      "inputs": [],
      "name": "totalSupply",
      "outputs": [
        {
          "internalType": "uint256",
          "name": "",
          "type": "uint256"
        }
      ],
      "stateMutability": "view",
      "type": "function"
    },
    {
      "inputs": [
        {
          "internalType": "address",
          "name": "from",
          "type": "address"
        },
        {
          "internalType": "address",
          "name": "to",
          "type": "address"
        },
        {
          "internalType": "uint256",
          "name": "tokenId",
          "type": "uint256"
        }
      ],
      "name": "transferFrom",
      "outputs": [],
      "stateMutability": "nonpayable",
      "type": "function"
    },
    {
      "inputs": [
        {
          "internalType": "address",
          "name": "newOwner",
          "type": "address"
        }
      ],
      "name": "transferOwnership",
      "outputs": [],
      "stateMutability": "nonpayable",
      "type": "function"
    },
    {
      "inputs": [],
      "name": "withdrawFunds",
      "outputs": [],
      "stateMutability": "nonpayable",
      "type": "function"
    }
  ],
  "bytecode": "0x60a06040819052600060808190526200001b91600c9162000131565b50600d80546001600160a01b03191673a95ea4cef177f3acc2d4545e6d2d8919887aa8741790553480156200004f57600080fd5b50604080518082018252600f81526e29b430b935b9b7b1b4b0b631b63ab160891b60208083019182528351808501909452600384526253534360e81b908401528151919291620000a29160009162000131565b508051620000b890600190602084019062000131565b505050620000d5620000cf620000db60201b60201c565b620000df565b62000214565b3390565b600b80546001600160a01b038381166001600160a01b0319831681179093556040519116919082907f8be0079c531659141344cd1fd0a4f28419497f9722a3daafe3b4186f6b6457e090600090a35050565b8280546200013f90620001d7565b90600052602060002090601f016020900481019282620001635760008555620001ae565b82601f106200017e57805160ff1916838001178555620001ae565b82800160010185558215620001ae579182015b82811115620001ae57825182559160200191906001019062000191565b50620001bc929150620001c0565b5090565b5b80821115620001bc5760008155600101620001c1565b600181811c90821680620001ec57607f821691505b602082108114156200020e57634e487b7160e01b600052602260045260246000fd5b50919050565b61243c80620002246000396000f3fe60806040526004361061019c5760003560e01c80636a126643116100ec578063b88d4fde1161008a578063c87b56dd11610064578063c87b56dd1461047e578063e985e9c51461049e578063eea80a15146104e7578063f2fde38b146104fa57600080fd5b8063b88d4fde14610431578063bd53ba0e14610451578063c002d23d1461046457600080fd5b80638da5cb5b116100c65780638da5cb5b146103be5780638f84aa09146103dc57806395d89b41146103fc578063a22cb4651461041157600080fd5b80636a1266431461035c57806370a0823114610389578063715018a6146103a957600080fd5b806324600fc31161015957806342842e0e1161013357806342842e0e146102dc5780634f6ccce7146102fc57806355f804b31461031c5780636352211e1461033c57600080fd5b806324600fc3146102915780632f745c59146102a657806332cb6b0c146102c657600080fd5b806301ffc9a7146101a157806306fdde03146101d6578063081812fc146101f8578063095ea7b31461023057806318160ddd1461025257806323b872dd14610271575b600080fd5b3480156101ad57600080fd5b506101c16101bc36600461205f565b61051a565b60405190151581526020015b60405180910390f35b3480156101e257600080fd5b506101eb61052b565b6040516101cd91906121d1565b34801561020457600080fd5b506102186102133660046120dd565b6105bd565b6040516001600160a01b0390911681526020016101cd565b34801561023c57600080fd5b5061025061024b366004612036565b610657565b005b34801561025e57600080fd5b506009545b6040519081526020016101cd565b34801561027d57600080fd5b5061025061028c366004611f48565b61076d565b34801561029d57600080fd5b5061025061079e565b3480156102b257600080fd5b506102636102c1366004612036565b6107dc565b3480156102d257600080fd5b5061026361271081565b3480156102e857600080fd5b506102506102f7366004611f48565b610872565b34801561030857600080fd5b506102636103173660046120dd565b61088d565b34801561032857600080fd5b50610250610337366004612097565b61092e565b34801561034857600080fd5b506102186103573660046120dd565b61096b565b34801561036857600080fd5b5061037c610377366004611efc565b6109e2565b6040516101cd919061218d565b34801561039557600080fd5b506102636103a4366004611efc565b610abd565b3480156103b557600080fd5b50610250610b44565b3480156103ca57600080fd5b50600b546001600160a01b0316610218565b3480156103e857600080fd5b50600d54610218906001600160a01b031681565b34801561040857600080fd5b506101eb610b7a565b34801561041d57600080fd5b5061025061042c366004611ffc565b610b89565b34801561043d57600080fd5b5061025061044c366004611f83565b610b94565b61025061045f3660046120dd565b610bcc565b34801561047057600080fd5b506102636532ee841b800081565b34801561048a57600080fd5b506101eb6104993660046120dd565b610d47565b3480156104aa57600080fd5b506101c16104b9366004611f16565b6001600160a01b03918216600090815260056020908152604080832093909416825291909152205460ff1690565b6102506104f53660046120dd565b610d52565b34801561050657600080fd5b50610250610515366004611efc565b610e31565b600061052582610ecc565b92915050565b60606000805461053a9061234a565b80601f01602080910402602001604051908101604052809291908181526020018280546105669061234a565b80156105b35780601f10610588576101008083540402835291602001916105b3565b820191906000526020600020905b81548152906001019060200180831161059657829003601f168201915b5050505050905090565b6000818152600260205260408120546001600160a01b031661063b5760405162461bcd60e51b815260206004820152602c60248201527f4552433732313a20617070726f76656420717565727920666f72206e6f6e657860448201526b34b9ba32b73a103a37b5b2b760a11b60648201526084015b60405180910390fd5b506000908152600460205260409020546001600160a01b031690565b60006106628261096b565b9050806001600160a01b0316836001600160a01b031614156106d05760405162461bcd60e51b815260206004820152602160248201527f4552433732313a20617070726f76616c20746f2063757272656e74206f776e656044820152603960f91b6064820152608401610632565b336001600160a01b03821614806106ec57506106ec81336104b9565b61075e5760405162461bcd60e51b815260206004820152603860248201527f4552433732313a20617070726f76652063616c6c6572206973206e6f74206f7760448201527f6e6572206e6f7220617070726f76656420666f7220616c6c00000000000000006064820152608401610632565b6107688383610ef1565b505050565b6107773382610f5f565b6107935760405162461bcd60e51b81526004016106329061226b565b610768838383611056565b600d5460405147916001600160a01b03169082156108fc029083906000818181858888f193505050501580156107d8573d6000803e3d6000fd5b5050565b60006107e783610abd565b82106108495760405162461bcd60e51b815260206004820152602b60248201527f455243373231456e756d657261626c653a206f776e657220696e646578206f7560448201526a74206f6620626f756e647360a81b6064820152608401610632565b506001600160a01b03919091166000908152600760209081526040808320938352929052205490565b61076883838360405180602001604052806000815250610b94565b600061089860095490565b82106108fb5760405162461bcd60e51b815260206004820152602c60248201527f455243373231456e756d657261626c653a20676c6f62616c20696e646578206f60448201526b7574206f6620626f756e647360a01b6064820152608401610632565b6009828154811061091c57634e487b7160e01b600052603260045260246000fd5b90600052602060002001549050919050565b600b546001600160a01b031633146109585760405162461bcd60e51b815260040161063290612236565b80516107d890600c906020840190611dd1565b6000818152600260205260408120546001600160a01b0316806105255760405162461bcd60e51b815260206004820152602960248201527f4552433732313a206f776e657220717565727920666f72206e6f6e657869737460448201526832b73a103a37b5b2b760b91b6064820152608401610632565b606060006109ef83610abd565b905080610a105760408051600080825260208201909252905b509392505050565b60008167ffffffffffffffff811115610a3957634e487b7160e01b600052604160045260246000fd5b604051908082528060200260200182016040528015610a62578160200160208202803683370190505b50905060005b82811015610a0857610a7a85826107dc565b828281518110610a9a57634e487b7160e01b600052603260045260246000fd5b602090810291909101015280610aaf8161237f565b915050610a68565b50919050565b60006001600160a01b038216610b285760405162461bcd60e51b815260206004820152602a60248201527f4552433732313a2062616c616e636520717565727920666f7220746865207a65604482015269726f206164647265737360b01b6064820152608401610632565b506001600160a01b031660009081526003602052604090205490565b600b546001600160a01b03163314610b6e5760405162461bcd60e51b815260040161063290612236565b610b7860006111fd565b565b60606001805461053a9061234a565b6107d833838361124f565b610b9e3383610f5f565b610bba5760405162461bcd60e51b81526004016106329061226b565b610bc68484848461131e565b50505050565b600081118015610bdd575060328111155b610c3b5760405162461bcd60e51b815260206004820152602960248201527f596f752063616e206f6e6c7920627579203120746f20353020736861726b7320604482015268617420612074696d6560b81b6064820152608401610632565b61271081610c4860095490565b610c5291906122bc565b1115610ca05760405162461bcd60e51b815260206004820152601f60248201527f5468657265206172656e277420656e6f75676820736861726b73206c656674006044820152606401610632565b6000610cb2826532ee841b80006122e8565b905080341015610d155760405162461bcd60e51b815260206004820152602860248201527f45746865722076616c75652073656e742069732062656c6f7720746865206d696044820152676e7420707269636560c01b6064820152608401610632565b6000805b83811015610bc657610d29611351565b9150610d3533836114e7565b80610d3f8161237f565b915050610d19565b606061052582611501565b60008111610d9a5760405162461bcd60e51b81526020600482015260156024820152744d696e74206174206c65617374203120736861726b60581b6044820152606401610632565b61271081610da760095490565b610db191906122bc565b1115610dff5760405162461bcd60e51b815260206004820152601f60248201527f5468657265206172656e277420656e6f75676820736861726b73206c656674006044820152606401610632565b6000805b8281101561076857610e13611351565b9150610e1f33836114e7565b80610e298161237f565b915050610e03565b600b546001600160a01b03163314610e5b5760405162461bcd60e51b815260040161063290612236565b6001600160a01b038116610ec05760405162461bcd60e51b815260206004820152602660248201527f4f776e61626c653a206e6577206f776e657220697320746865207a65726f206160448201526564647265737360d01b6064820152608401610632565b610ec9816111fd565b50565b60006001600160e01b0319821663780e9d6360e01b1480610525575061052582611673565b600081815260046020526040902080546001600160a01b0319166001600160a01b0384169081179091558190610f268261096b565b6001600160a01b03167f8c5be1e5ebec7d5bd14f71427d1e84f3dd0314c0f7b2291e5b200ac8c7c3b92560405160405180910390a45050565b6000818152600260205260408120546001600160a01b0316610fd85760405162461bcd60e51b815260206004820152602c60248201527f4552433732313a206f70657261746f7220717565727920666f72206e6f6e657860448201526b34b9ba32b73a103a37b5b2b760a11b6064820152608401610632565b6000610fe38361096b565b9050806001600160a01b0316846001600160a01b0316148061101e5750836001600160a01b0316611013846105bd565b6001600160a01b0316145b8061104e57506001600160a01b0380821660009081526005602090815260408083209388168352929052205460ff165b949350505050565b826001600160a01b03166110698261096b565b6001600160a01b0316146110cd5760405162461bcd60e51b815260206004820152602560248201527f4552433732313a207472616e736665722066726f6d20696e636f72726563742060448201526437bbb732b960d91b6064820152608401610632565b6001600160a01b03821661112f5760405162461bcd60e51b8152602060048201526024808201527f4552433732313a207472616e7366657220746f20746865207a65726f206164646044820152637265737360e01b6064820152608401610632565b61113a8383836116c3565b611145600082610ef1565b6001600160a01b038316600090815260036020526040812080546001929061116e908490612307565b90915550506001600160a01b038216600090815260036020526040812080546001929061119c9084906122bc565b909155505060008181526002602052604080822080546001600160a01b0319166001600160a01b0386811691821790925591518493918716917fddf252ad1be2c89b69c2b068fc378daa952ba7f163c4a11628f55a4df523b3ef91a4505050565b600b80546001600160a01b038381166001600160a01b0319831681179093556040519116919082907f8be0079c531659141344cd1fd0a4f28419497f9722a3daafe3b4186f6b6457e090600090a35050565b816001600160a01b0316836001600160a01b031614156112b15760405162461bcd60e51b815260206004820152601960248201527f4552433732313a20617070726f766520746f2063616c6c6572000000000000006044820152606401610632565b6001600160a01b03838116600081815260056020908152604080832094871680845294825291829020805460ff191686151590811790915591519182527f17307eab39ab6107e8899845ad3d59bd9653f200f220920489ca2b5937696c31910160405180910390a3505050565b611329848484611056565b611335848484846116ce565b610bc65760405162461bcd60e51b8152600401610632906121e4565b60008061135d60095490565b61136990612710612307565b905060008161137760095490565b6040805160208101929092526bffffffffffffffffffffffff193360601b16908201524460548201524260748201526094016040516020818303038152906040528051906020012060001c6113cc919061239a565b90506000600e8261271081106113f257634e487b7160e01b600052603260045260246000fd5b01541561142457600e82612710811061141b57634e487b7160e01b600052603260045260246000fd5b01549050611427565b50805b600e611434600185612307565b612710811061145357634e487b7160e01b600052603260045260246000fd5b015461148d57611464600184612307565b600e83612710811061148657634e487b7160e01b600052603260045260246000fd5b01556114e0565b600e61149a600185612307565b61271081106114b957634e487b7160e01b600052603260045260246000fd5b0154600e8361271081106114dd57634e487b7160e01b600052603260045260246000fd5b01555b9392505050565b6107d88282604051806020016040528060008152506117db565b6000818152600260205260409020546060906001600160a01b03166115825760405162461bcd60e51b815260206004820152603160248201527f45524337323155524953746f726167653a2055524920717565727920666f72206044820152703737b732bc34b9ba32b73a103a37b5b2b760791b6064820152608401610632565b6000828152600660205260408120805461159b9061234a565b80601f01602080910402602001604051908101604052809291908181526020018280546115c79061234a565b80156116145780601f106115e957610100808354040283529160200191611614565b820191906000526020600020905b8154815290600101906020018083116115f757829003601f168201915b50505050509050600061162561180e565b9050805160001415611638575092915050565b81511561166a578082604051602001611652929190612121565b60405160208183030381529060405292505050919050565b61104e8461181d565b60006001600160e01b031982166380ac58cd60e01b14806116a457506001600160e01b03198216635b5e139f60e01b145b8061052557506301ffc9a760e01b6001600160e01b0319831614610525565b6107688383836118f7565b60006001600160a01b0384163b156117d057604051630a85bd0160e11b81526001600160a01b0385169063150b7a0290611712903390899088908890600401612150565b602060405180830381600087803b15801561172c57600080fd5b505af192505050801561175c575060408051601f3d908101601f191682019092526117599181019061207b565b60015b6117b6573d80801561178a576040519150601f19603f3d011682016040523d82523d6000602084013e61178f565b606091505b5080516117ae5760405162461bcd60e51b8152600401610632906121e4565b805181602001fd5b6001600160e01b031916630a85bd0160e11b14905061104e565b506001949350505050565b6117e583836119af565b6117f260008484846116ce565b6107685760405162461bcd60e51b8152600401610632906121e4565b6060600c805461053a9061234a565b6000818152600260205260409020546060906001600160a01b031661189c5760405162461bcd60e51b815260206004820152602f60248201527f4552433732314d657461646174613a2055524920717565727920666f72206e6f60448201526e3732bc34b9ba32b73a103a37b5b2b760891b6064820152608401610632565b60006118a661180e565b905060008151116118c657604051806020016040528060008152506114e0565b806118d084611afd565b6040516020016118e1929190612121565b6040516020818303038152906040529392505050565b6001600160a01b0383166119525761194d81600980546000838152600a60205260408120829055600182018355919091527f6e1540171b6c0c960b71a7020d9f60077f6af931a8bbf590da0223dacf75c7af0155565b611975565b816001600160a01b0316836001600160a01b031614611975576119758382611c17565b6001600160a01b03821661198c5761076881611cb4565b826001600160a01b0316826001600160a01b031614610768576107688282611d8d565b6001600160a01b038216611a055760405162461bcd60e51b815260206004820181905260248201527f4552433732313a206d696e7420746f20746865207a65726f20616464726573736044820152606401610632565b6000818152600260205260409020546001600160a01b031615611a6a5760405162461bcd60e51b815260206004820152601c60248201527f4552433732313a20746f6b656e20616c7265616479206d696e746564000000006044820152606401610632565b611a76600083836116c3565b6001600160a01b0382166000908152600360205260408120805460019290611a9f9084906122bc565b909155505060008181526002602052604080822080546001600160a01b0319166001600160a01b03861690811790915590518392907fddf252ad1be2c89b69c2b068fc378daa952ba7f163c4a11628f55a4df523b3ef908290a45050565b606081611b215750506040805180820190915260018152600360fc1b602082015290565b8160005b8115611b4b5780611b358161237f565b9150611b449050600a836122d4565b9150611b25565b60008167ffffffffffffffff811115611b7457634e487b7160e01b600052604160045260246000fd5b6040519080825280601f01601f191660200182016040528015611b9e576020820181803683370190505b5090505b841561104e57611bb3600183612307565b9150611bc0600a8661239a565b611bcb9060306122bc565b60f81b818381518110611bee57634e487b7160e01b600052603260045260246000fd5b60200101906001600160f81b031916908160001a905350611c10600a866122d4565b9450611ba2565b60006001611c2484610abd565b611c2e9190612307565b600083815260086020526040902054909150808214611c81576001600160a01b03841660009081526007602090815260408083208584528252808320548484528184208190558352600890915290208190555b5060009182526008602090815260408084208490556001600160a01b039094168352600781528383209183525290812055565b600954600090611cc690600190612307565b6000838152600a602052604081205460098054939450909284908110611cfc57634e487b7160e01b600052603260045260246000fd5b906000526020600020015490508060098381548110611d2b57634e487b7160e01b600052603260045260246000fd5b6000918252602080832090910192909255828152600a90915260408082208490558582528120556009805480611d7157634e487b7160e01b600052603160045260246000fd5b6001900381819060005260206000200160009055905550505050565b6000611d9883610abd565b6001600160a01b039093166000908152600760209081526040808320868452825280832085905593825260089052919091209190915550565b828054611ddd9061234a565b90600052602060002090601f016020900481019282611dff5760008555611e45565b82601f10611e1857805160ff1916838001178555611e45565b82800160010185558215611e45579182015b82811115611e45578251825591602001919060010190611e2a565b50611e51929150611e55565b5090565b5b80821115611e515760008155600101611e56565b600067ffffffffffffffff80841115611e8557611e856123da565b604051601f8501601f19908116603f01168101908282118183101715611ead57611ead6123da565b81604052809350858152868686011115611ec657600080fd5b858560208301376000602087830101525050509392505050565b80356001600160a01b0381168114611ef757600080fd5b919050565b600060208284031215611f0d578081fd5b6114e082611ee0565b60008060408385031215611f28578081fd5b611f3183611ee0565b9150611f3f60208401611ee0565b90509250929050565b600080600060608486031215611f5c578081fd5b611f6584611ee0565b9250611f7360208501611ee0565b9150604084013590509250925092565b60008060008060808587031215611f98578081fd5b611fa185611ee0565b9350611faf60208601611ee0565b925060408501359150606085013567ffffffffffffffff811115611fd1578182fd5b8501601f81018713611fe1578182fd5b611ff087823560208401611e6a565b91505092959194509250565b6000806040838503121561200e578182fd5b61201783611ee0565b91506020830135801515811461202b578182fd5b809150509250929050565b60008060408385031215612048578182fd5b61205183611ee0565b946020939093013593505050565b600060208284031215612070578081fd5b81356114e0816123f0565b60006020828403121561208c578081fd5b81516114e0816123f0565b6000602082840312156120a8578081fd5b813567ffffffffffffffff8111156120be578182fd5b8201601f810184136120ce578182fd5b61104e84823560208401611e6a565b6000602082840312156120ee578081fd5b5035919050565b6000815180845261210d81602086016020860161231e565b601f01601f19169290920160200192915050565b6000835161213381846020880161231e565b83519083019061214781836020880161231e565b01949350505050565b6001600160a01b0385811682528416602082015260408101839052608060608201819052600090612183908301846120f5565b9695505050505050565b6020808252825182820181905260009190848201906040850190845b818110156121c5578351835292840192918401916001016121a9565b50909695505050505050565b6020815260006114e060208301846120f5565b60208082526032908201527f4552433732313a207472616e7366657220746f206e6f6e20455243373231526560408201527131b2b4bb32b91034b6b83632b6b2b73a32b960711b606082015260800190565b6020808252818101527f4f776e61626c653a2063616c6c6572206973206e6f7420746865206f776e6572604082015260600190565b60208082526031908201527f4552433732313a207472616e736665722063616c6c6572206973206e6f74206f6040820152701ddb995c881b9bdc88185c1c1c9bdd9959607a1b606082015260800190565b600082198211156122cf576122cf6123ae565b500190565b6000826122e3576122e36123c4565b500490565b6000816000190483118215151615612302576123026123ae565b500290565b600082821015612319576123196123ae565b500390565b60005b83811015612339578181015183820152602001612321565b83811115610bc65750506000910152565b600181811c9082168061235e57607f821691505b60208210811415610ab757634e487b7160e01b600052602260045260246000fd5b6000600019821415612393576123936123ae565b5060010190565b6000826123a9576123a96123c4565b500690565b634e487b7160e01b600052601160045260246000fd5b634e487b7160e01b600052601260045260246000fd5b634e487b7160e01b600052604160045260246000fd5b6001600160e01b031981168114610ec957600080fdfea26469706673582212204430e335e56a44fb6437afc1dd93df1163041008398a60b45310b649aa6189c864736f6c63430008040033",
  "linkReferences": {},
  "deployedLinkReferences": {}
}